:100000000C9463000C948B000C948B000C948B006C
:100010000C948B000C948B000C948B000C948B0034
:100020000C948B000C948B000C948B000C948B0024
:100030000C948B000C948B000C948B000C948B0014
:100040000C940C0F0C948B000C94DA0E0C94B40EE0
:100050000C948B000C948B000C948B000C948B00F4
:100060000C94560F0C948B00000000002300260017
:10007000290000000008000201000003040700003E
:1000800000000000000000000000250028002B00F8
:1000900000000000240027002A00040404040404D3
:1000A0000404020202020202030303030303010227
:1000B00004081020408001020408102001020408F6
:1000C00010207510781311241FBECFEFD8E0DEBFCB
:1000D000CDBF23E0A8E9B1E001C01D92A83CB20762
:1000E000E1F711E0A0E0B1E0E8E1FDE202C0059037
:1000F0000D92A839B107D9F710E0C2E6D0E004C0EC
:100100002197FE010E945214C136D107C9F70E94FF
:1001100010110C947F160C9400000F931F938B0109
:100120009C018091B6039091B7030A9764F4E4E3CD
:10013000F3E090E080E061917191672B49F00196C6
:100140008A309105C1F78FEF9FEF1F910F910895AE
:10015000FC01EE0FFF1FEE0FFF1FE85BFC4F00835B
:10016000118322833383FC01EE0FFF1FEC5CFC4FF5
:1001700051834083FC01EE0FFF1FE059FC4F1182B9
:10018000108221E0FC01E856FC4F20832FB7F89441
:1001900040910203509103036091040370910503A1
:1001A0002FBFFC01EE0FFF1FEE0FFF1FE45FFC4FA0
:1001B00040835183628373832091B6033091B703E8
:1001C0002F5F3F4F3093B7032093B603BECF90E02D
:1001D000FC01E255FF4F249186569F4FFC0184910C
:1001E000882399F090E0880F991FFC01E057FF4F9A
:1001F000A591B491FC01EA57FF4F859194918FB777
:10020000F894EC91E22BEC938FBF089580919801C4
:100210009091990101969093990180939801089586
:1002200008950895AF92BF92CF92DF92EF92FF921E
:100230000F931F93CF93DF936C017B018B01040F0E
:10024000151FEB015E01AE18BF08C017D10759F0AA
:100250006991D601ED91FC910190F081E02DC601EC
:100260000995892B79F7C501DF91CF911F910F91E6
:10027000FF90EF90DF90CF90BF90AF900895FC017A
:10028000538D448D252F30E0842F90E0821B930BFB
:10029000541710F0CF96089501970895FC01918DA1
:1002A000828D981761F0A28DAE0FBF2FB11D5D96A4
:1002B0008C91928D9F5F9F73928F90E008958FEF46
:1002C0009FEF0895FC01918D828D981731F0828DFA
:1002D000E80FF11D858D90E008958FEF9FEF089551
:1002E000FC01918D228D892F90E0805C9F4F821BB5
:1002F00091098F739927089589E592E00E94700112
:1003000021E0892B09F420E0822F089580E090E01D
:10031000892B29F00E947C0181110C940000089522
:10032000FC01A48DA80FB92FB11DA35ABF4F2C916A
:10033000848D90E001968F739927848FA689B78961
:100340002C93A089B1898C91837080648C93938D58
:10035000848D981306C00288F389E02D80818F7DFB
:1003600080830895EF92FF920F931F93CF93DF93B3
:10037000EC0181E0888F9B8D8C8D98131AC0E889E1
:10038000F989808185FF15C09FB7F894EE89FF89B0
:100390006083E889F98980818370806480839FBF4E
:1003A00081E090E0DF91CF911F910F91FF90EF904E
:1003B0000895F62E0B8D10E00F5F1F4F0F7311275E
:1003C000E02E8C8D8E110CC00FB607FCFACFE88999
:1003D000F989808185FFF5CFCE010E949001F1CF90
:1003E000EB8DEC0FFD2FF11DE35AFF4FF0829FB70D
:1003F000F8940B8FEA89FB8980818062CFCFCF93FD
:10040000DF93EC01888D8823B9F0AA89BB89E8893C
:10041000F9898C9185FD03C0808186FD0DC00FB6E2
:1004200007FCF7CF8C9185FFF2CF808185FFEDCF60
:10043000CE010E949001E9CFDF91CF9108958330E2
:1004400081F028F4813099F08230A9F00895873046
:10045000A9F08830C9F08430B1F4809180008F7D9C
:1004600003C0809180008F7780938000089584B5C9
:100470008F7784BD089584B58F7DFBCF8091B000C8
:100480008F778093B00008958091B0008F7DF9CF71
:10049000CF93DF93282F30E0F901EE58FF4F84917E
:1004A000F901E255FF4FD491F901E656FF4FC4918F
:1004B000CC23A1F081110E941F02EC2FF0E0EE0F7F
:1004C000FF1FE859FF4FA591B491EC91ED2381E016
:1004D00090E009F480E0DF91CF91089580E090E012
:1004E000FACF1F93CF93DF93282F30E0F901EE5816
:1004F000FF4F8491F901E255FF4FD491F901E6567F
:10050000FF4FC491CC23A9F0162F81110E941F0226
:10051000EC2FF0E0EE0FFF1FEA57FF4FA591B491CB
:100520008FB7F894EC91111108C0D095DE23DC93BD
:100530008FBFDF91CF911F910895DE2BF8CF8DE013
:100540000E94480261E0892B09F060E08DE00C9484
:1005500071023FB7F89480914D0290914E02A091A4
:100560004F02B091500226B5A89B05C02F3F19F04D
:100570000196A11DB11D3FBFBA2FA92F982F882723
:10058000BC01CD01620F711D811D911D42E0660FFE
:10059000771F881F991F4A95D1F708958F929F92D0
:1005A000AF92BF92CF92DF92EF92FF924B015C012C
:1005B0000E94A9026B017C010E94A9026C197D09AD
:1005C0008E099F09683E734081059105A8F321E0DB
:1005D000821A9108A108B10888EEC80E83E0D81EDF
:1005E000E11CF11C81149104A104B10429F7FF90CE
:1005F000EF90DF90CF90BF90AF909F908F90089535
:1006000020910202260F3327331F21323105ECF4EB
:1006100020912602FC0190E080E0243069F082E025
:100620000895A09102022191AC014E515E4FA40F9A
:10063000B52FB11D2C930196861798F38091020275
:10064000680F6093020280E0089581E0089510929F
:10065000260281E0809328021092270261E082E165
:100660000E94710261E083E10E947102E9EBF0E017
:1006700080818E7F808380818D7F808388E48093DA
:10068000B80085E48093BC000895CF93DF9391E098
:100690009093E1018823B9F0C091B800D091BA00DD
:1006A0008091BC008A7B8093BC0060E082E10E9464
:1006B000710260E083E10E9471020E942703D093DF
:1006C000BA00C093B800DF91CF9108950895E091EA
:1006D000580280915702E81730F4F0E0E454FE4FDE
:1006E000808190E008958FEF9FEF089590915802D8
:1006F000809157022FEF3FEF981748F4E92FF0E071
:10070000E454FE4F208130E09F5F90935802C9016E
:1007100008958091570290915802891B990B089572
:10072000CF92DF92EF92FF920F931F93CF93DF93BD
:100730007C01CB018A012091BB01222389F0EB01CE
:100740006B01C40ED51ECC15DD0569F06991D7018A
:10075000ED91FC910190F081E02DC7010995F3CF57
:10076000642F0E940003C801DF91CF911F910F9168
:10077000FF90EF90DF90CF900895CF93DF931F927B
:10078000CDB7DEB769832091BB012223F9F0209118
:100790005502203258F021E030E0FC0133832283FF
:1007A00090E080E00F90DF91CF9108958091560204
:1007B000E82FF0E0E556FE4F998190838F5F80939C
:1007C00056028093550281E090E0ECCF61E0CE01CB
:1007D00001960E940003F7CFCF92DF92EF92FF9233
:1007E0000F931F93CF93DF93FC01C48121E02093EB
:1007F000BB01C0939A011092560210925502838554
:10080000682B86EF92E00E94BD03D0915502D13251
:1008100008F092C00E94A9026B017C01809126021F
:10082000811165C082E08093260281E080932802D6
:100830008FEF8093250210924A02D0934902ABE9D0
:10084000B1E0E9E2F2E080E0D81385C010924B02FB
:1008500080914B02CC0FC82BC0934B028091270292
:10086000813009F07CC0109227020E94A9026B011E
:100870007C0180914B028093BB008091DD019091BF
:10088000DE01A091DF01B091E001892B8A2B8B2B37
:1008900099F00E94A9020091DD011091DE012091E2
:1008A000DF013091E0016C197D098E099F0906175F
:1008B000170728073907E0F18091BC0083FDD9CFE5
:1008C00085EC8093BC000E94A9026B017C018091A1
:1008D0002602823009F445C0809125028F3F61F1E4
:1008E00080912502803241F18091250225C08091BE
:1008F000DD019091DE01A091DF01B091E001892B33
:100900008A2B8B2B09F48ACF0E94A9020091DD016A
:100910001091DE012091DF013091E0016C197D0919
:100920008E099F09061717072807390708F076CFA1
:100930008091DC010E9445031092560210925502EC
:100940001092BB01DF91CF911F910F91FF90EF901B
:10095000DF90CF9008959D9191938F5F75CF85EE35
:10096000B0CF8091DD019091DE01A091DF01B091C7
:10097000E001892B8A2B8B2B09F4A9CF0E94A902B5
:100980000091DD011091DE012091DF013091E00145
:100990006C197D098E099F09061717072807390763
:1009A00008F095CFC5CF089590E080E008950F93AB
:1009B0001F93CF93DF938B01EC016E817F816115D3
:1009C000710551F0CE01F80109951816190624F0A9
:1009D0000E80DF81C02DF1CFCE01DF91CF911F912D
:1009E0000F9108954F925F926F927F928F929F9294
:1009F000AF92BF92CF92DF92EF92FF920F931F932D
:100A0000CF93DF93FC012281338122303105F4F052
:100A10005B016C012C01F4E04F0E511C7201F701D7
:100A2000C081D1812097D1F3B501CE010E94D704B6
:100A30004C01FC010681178101151105C1F4E41474
:100A4000F50461F7F601978386831486DF91CF91D1
:100A50001F910F91FF90EF90DF90CF90BF90AF90DC
:100A60009F908F907F906F905F904F900895B50109
:100A7000C8010E94D704FC0166807780F4011782C8
:100A80001682FC0117821682B801CE01F501099584
:100A9000F701181619066CF0D183C0837E01F6E0C9
:100AA000EF0EF11C8E819F81009781F41F830E83CE
:100AB0001CC0118300837801F6E0EF0EF11CF801F1
:100AC000868197810097D1F08C01CE01EC01DCCFBB
:100AD000EC018E819F810097D9F77F826E827E0123
:100AE000F6E0EF0EF11C9BCF8C01F8018681978117
:100AF0000097D1F7778266827801F2CFD783C683D9
:100B0000E8CFDC011496ED91FC9115971C968C9121
:100B10001C978823B1F01A962D913C911B97621770
:100B200073077CF01896ED91FC91199726173707FB
:100B30005CF43097C1F00680F781E02D2F5F3F4FC6
:100B4000F5CF30E020E0F2CF2617370771F481E0CF
:100B50001C968C931C971B963C932E931A97199670
:100B6000FC93EE931897CF010895F0E0E0E0FBCFFF
:100B7000FC01828193810895DC01FB0111961C9296
:100B80001E9213961C921E92129715961C921E92FC
:100B900014978081918111969C938E938281938189
:100BA00013969C938E9312978481958115969C93AE
:100BB0008E931497118210821382128215821482EE
:100BC00008950F931F93CF938C01C62F0E94EC03BF
:100BD0006C2F6460C8010E94EC036C2F6B7FC8010E
:100BE0000E94EC0383EC90E00197F1F7CF911F9105
:100BF0000F9108950F931F93CF93DF938C01D62FFE
:100C0000C42F607F642B0E94E10580E1D89FB00172
:100C100011246C2BC801DF91CF911F910F910C947F
:100C2000E105CF93DF93CDB7DEB728970FB6F894E1
:100C3000DEBF0FBECDBF98E0E6E0F1E0DE01119629
:100C400001900D929A95E1F79091C003961708F4E0
:100C50006FEF262F30E0220F331F41E050E04C0FA2
:100C60005D1F240F351FF9016081680F606840E047
:100C700088EB93E028960FB6F894DEBF0FBECDBF89
:100C8000DF91CF910C94FA0541E00E94FA0581E0D2
:100C900090E008952F923F924F925F926F927F92D1
:100CA0008F929F92AF92BF92CF92DF92EF92FF927C
:100CB0000F931F93CF93DF9360900A0370900B0301
:100CC0006114710409F410C1FC01848095808114C1
:100CD000910409F409C18B017C01FB01C480D5801A
:100CE000C818D908C0910603D0910703C114D104D4
:100CF000B9F4F70160817181CE010E946516EC01A3
:100D0000009709F4F1C0F801608171814481558137
:100D10000E943A16F80184819581C80FD91FE9CF46
:100D2000D7FC10C0FC01408051805301CE01B201BC
:100D30000E946516009709F44CC0880D991DAC0CF3
:100D4000BD1CF5CF5E01F70160817181CE010E946B
:100D500065163C01009739F14C018C1A9D0AA401DB
:100D6000BE01C5010E943A16A80CB91CF8016081A9
:100D7000718144815581C5010E943A16F801848130
:100D80009581A80EB91EF701C481D581C60DD71D66
:100D900080910A0390910B038C0D9D1D90930B0382
:100DA00080930A03D0CFBE01C501DF91CF911F917F
:100DB0000F91FF90EF90DF90CF90BF90AF909F90FA
:100DC0008F907F906F905F904F903F902F900C94FA
:100DD0005E166A147B0409F487C080910803909121
:100DE00009038A159B0588F4B5016F5F7F4FCE011B
:100DF0000E947D15009709F477C0909307038093B4
:100E00000603B0920903A0920803C0910A03D0918F
:100E10000B032197D7FD68C04E01F7014480558030
:100E20004114510409F460C0A0900A03B0900B0370
:100E3000A114B10409F458C0A414B50408F454C0B2
:100E4000CA15DB0520F04501F1E08F1A910860908A
:100E5000060370900703C301CFEFDFEF1301280CE7
:100E6000391C2816390688F0F701608171810E94CB
:100E70006516009751F09C012619370982169306D2
:100E800008F49E010196E901ECCFD7FD2DC04C0E70
:100E90005D1EC301840D951DA50144195509BC01B2
:100EA0008C0D9D1D0E94431680910A0390910B03A7
:100EB0008C0D9D1D90930B0380930A0320910603D4
:100EC00030910703820F931FFC011082809106036B
:100ED00090910703F80160817181448155818C0FE5
:100EE0009D1F0E943A1695CFDF91CF911F910F91D0
:100EF000FF90EF90DF90CF90BF90AF909F908F903A
:100F00007F906F905F904F903F902F9008950F9338
:100F10001F93CF93DF93EC0188819981009759F05B
:100F20002A813B812617370730F081E0DF91CF918E
:100F30001F910F9108958B016F5F7F4F0E947D1568
:100F4000009759F0998388831B830A832C813D8104
:100F5000232B59F7FC011082E8CF80E0E7CFFB019B
:100F600001900020E9F73197AF01461B570BDC01D8
:100F7000ED91FC910280F381E02D0994CF93DF93F2
:100F8000BC0189E592E00E94AF07EC016CE571E0DD
:100F900089E592E00E94AF078C0F9D1FDF91CF91F2
:100FA0000895FC0180819181009711F00C947C13CD
:100FB00060E070E0CB010895FC0124813581232B92
:100FC00039F421E0FB018081882349F020E007C04B
:100FD000808191810E94551621E0892BB9F7822FDB
:100FE0000895CF93DF93EC0188819981009711F0E8
:100FF0000E94F414198218821D821C821B821A829C
:10100000DF91CF910895EF92FF920F931F93CF93AB
:10101000DF93EC01FB01E080F180E114F10411F1B8
:101020000481158101151105A9F08C819D81080F9E
:10103000191FB801CE010E948707882399F02881E3
:1010400039818C819D81B701820F931F0E945E16AA
:101050001D830C83CE01DF91CF911F910F91FF90E3
:10106000EF900895CE010E94F107F4CFEF92FF9226
:101070000F931F93CF93DF93EC017B018A01BA0199
:101080000E94870781110BC0CE010E94F107CE019B
:10109000DF91CF911F910F91FF90EF9008951D83E5
:1010A0000C83B701888199810E945E16F0CFFB0105
:1010B00001900020E9F73197AF01461B570B0C94C4
:1010C0003608CF93DF9300D0CDB7DEB7FC01118295
:1010D0001082138212821582148269831A82BE01E1
:1010E0006F5F7F4F0E9457080F900F90DF91CF9155
:1010F0000895CF93DF93EC01FB018617970749F022
:10110000608171816115710541F0448155810E94B2
:101110003608CE01DF91CF9108950E94F107F9CFF3
:10112000FC011182108213821282158214820C94A7
:101130007908CF93DF9377FD10C0FC0122813381C2
:101140006217730754F4EA010E948105BE010E94F0
:10115000790881E0DF91CF91089580E0FBCFFC0119
:10116000118210821382128215821482FB01019077
:101170000020E9F73197AF01461B570B0C94360856
:10118000CF93DF93EC01CB01BA010E948105009758
:1011900041F0BC01CE010E949008CE01DF91CF91B9
:1011A000089563E671E0CE010E94AF08F6CFFC011E
:1011B00080819181009711F00C94F41408950F939D
:1011C0001F93CF93DF9300D000D000D0CDB7DEB710
:1011D0008C01D801ED91FC910480F581E02DC801CE
:1011E0000995181619067CF4D801ED91FC91028836
:1011F000F389E02DB801CE0101960995CE01019643
:101200000E94D708E6CF26960FB6F894DEBF0FBE31
:10121000CDBFDF91CF911F910F910895AF92BF92F3
:10122000CF92DF92EF92FF920F931F93CF93DF93B2
:1012300000D000D000D0CDB7DEB77C018B0157FDC8
:1012400008C0DB0112968D919C911397481759079E
:10125000BCF063E671E0C7010E94AF08C7012696A3
:101260000FB6F894DEBF0FBECDBFDF91CF911F91B7
:101270000F91FF90EF90DF90CF90BF90AF900895C7
:101280004115510549F4ED91FC910288F389E02D57
:10129000B801C7010995E2CF01978417950731F48A
:1012A000ED91FC910088F189E02DF2CFBA016150F7
:1012B0007109C8010E9481055C01FC01C680D780CC
:1012C000B601CE0101960E949008D5011696ED91C7
:1012D000FC9117978681978117969C938E9316970A
:1012E000C114D10431F0C6010E94D708C6010E9482
:1012F000F414F80182819381019793838283148689
:10130000BE016F5F7F4FC7010E94BC05CE010196F1
:101310000E94D708A3CFAF92BF92CF92DF92EF92F5
:10132000FF920F931F93CF93DF9300D000D000D094
:10133000CDB7DEB77C018B01FB016281738116168C
:101340001706B4F063E671E00E94AF08C701269665
:101350000FB6F894DEBF0FBECDBFDF91CF911F91C6
:101360000F91FF90EF90DF90CF90BF90AF900895D6
:1013700014866130710579F162507109C8010E94CB
:1013800081056C01FC0166817781CE0101960E9486
:101390009008F601A680B780A114B10431F0C50110
:1013A0000E94D708C5010E94F414F6011782168224
:1013B000F801D782C68282819381019793838283C9
:1013C000BE016F5F7F4FC7010E94BC05CE01019631
:1013D0000E94D708BBCF64817581CE0101960E941F
:1013E0009008F801C480D580C114D10431F0C60141
:1013F0000E94D708C6010E94F414F80115821482D5
:101400001782168213821282DBCFAF92BF92CF92E5
:10141000DF92EF92FF920F931F93CF93DF9300D051
:1014200000D000D0CDB7DEB77C018B01DB01129676
:101430008D919C91139718161906BCF063E671E024
:10144000C7010E94AF08C70126960FB6F894DEBF09
:101450000FBECDBFDF91CF911F910F91FF90EF9005
:10146000DF90CF90BF90AF900895019791F1FB016D
:1014700064817581DB011696AD90BC90CE0101961A
:101480000E949008F801C480D580C114D10431F0C5
:10149000C6010E94D708C6010E94F414D80115960F
:1014A000BC92AE92149712968D919C9113970197CE
:1014B00013969C938E9312971C961C92BE016F5F9D
:1014C0007F4FC7010E94BC05CE0101960E94D7083C
:1014D000BACFED91FC910088F189E02DC701099503
:1014E000B2CF0F931F93CF93DF938C0182E191E0F2
:1014F000F80191838083F801C481D581209759F048
:101500008E819F8195838483CE010E94D708CE016E
:101510000E94F414F0CFDF91CF911F910F910895A5
:10152000CF93DF93EC010E94710ACE01DF91CF913E
:101530000C94F41485ED8093BC008091DD019091B2
:10154000DE01A091DF01B091E0010796A11DB11D60
:1015500023E0B695A795979587952A95D1F7209181
:10156000BC0024FD03C01092260208954091DD01C5
:101570005091DE016091DF017091E001452B462B17
:10158000472B69F30097A105B10541F025E32A95A2
:10159000F1F700000197A109B109E1CF8091DC01C9
:1015A0000C944503AF92BF92CF92DF92EF92FF92DD
:1015B0000F931F93CF93DF9300D000D000D0CDB70F
:1015C000DEB78C016B015A01DC0112968D919C9162
:1015D00013976817790734F1ED91FC91E084F18459
:1015E000B501CE0101960E949008BE016F5F7F4F4A
:1015F000C801F7010995182FCE0101960E94D7085E
:10160000812F26960FB6F894DEBF0FBECDBFDF91B7
:10161000CF911F910F91FF90EF90DF90CF90BF90EF
:10162000AF900895672B29F4ED91FC91E284F38447
:10163000D7CF88E090E00E9458147C0188E0D70161
:101640001D928A95E9F763E671E0C7010E94AF0831
:10165000B60161507109C8010E9481056C01B50194
:10166000C7010E947908F60186819781D7011796F4
:101670009C938E931697F782E682F801828193817C
:10168000019693838283148611E0BACFCF92DF92C2
:10169000EF92FF920F931F93CF93DF9300D000D070
:1016A00000D0CDB7DEB78C016B01DC0112968D91B5
:1016B0009C911397892B19F5ED91FC91E084F184AD
:1016C000CE0101960E949008BE016F5F7F4FC80156
:1016D000F7010995182FCE0101960E94D708812F96
:1016E00026960FB6F894DEBF0FBECDBFDF91CF9127
:1016F0001F910F91FF90EF90DF90CF90089588E0B9
:1017000090E00E9458147C0188E0D7011D928A95D0
:10171000E9F763E671E0C7010E94AF08F801848130
:101720009581D70117969C938E931697B601C701A2
:101730000E947908F801F582E48282819381019602
:1017400093838283148611E0CACFEF92FF920F93A6
:101750001F93CF93DF93EC017B0188E090E00E9420
:1017600058148C0188E0F80111928A95E9F763E634
:1017700071E0C8010E94AF08B701C8010E94790852
:10178000F801178216828C819D81892BA1F0EE8150
:10179000FF81178306831F830E838A819B810196B5
:1017A0009B838A831C8681E0DF91CF911F910F91EB
:1017B000FF90EF9008951D830C83EDCF8F929F9241
:1017C000AF92BF92CF92DF92EF92FF920F931F934F
:1017D000CF93DF93CDB7DEB7EA970FB6F894DEBFAD
:1017E0000FBECDBF00910A0310910B030115110527
:1017F00009F4B1C1C0900603D09007037601C1146B
:10180000D10409F0C3C060E671E0CE0182960E9467
:10181000AF086FE571E0CE0101960E94AF08BE01EE
:101820006E5D7F4FCE0101960E944A06CE01019661
:101830000E94D708CE0182960E94D70860E671E028
:10184000CE0182960E94AF0862E671E0CE01019659
:101850000E94AF08BE016E5D7F4FCE0101960E94CF
:101860004A06CE0101960E94D708CE0182960E94B8
:10187000D70860E671E0CE0182960E94AF086DE560
:1018800071E0CE0101960E94AF08BE016E5D7F4FF0
:10189000CE0101960E944A06CE0101960E94D70809
:1018A000CE0182960E94D70860E671E0CE01829652
:1018B0000E94AF086FE571E0CE0101960E94AF086B
:1018C000BE016E5D7F4FCE0101960E944A06CE0199
:1018D00001960E94D708CE0182960E94D70866E042
:1018E00073E0CE01C5960E94900882E191E09BA32F
:1018F0008AA31FA21EA219A618A61DA21CA21BA67F
:101900001AA61DA61CA61EA610E000E0BE016B5C78
:101910007F4FCE0101960E949008AD81BE81BD012E
:1019200061507109E980FA802FEF3FEFB12CA12CB3
:1019300090E080E050E040E0681779070CF462C066
:10194000041715070CF462C0FC0131964F018A1789
:101950009B0758F4E114F10441F06701C80ED91E49
:10196000F601D080F0E2DF1619F06817790759F414
:101970004F5F5F4F5901EFEFAE1ABE0A940168172F
:10198000790709F09C01C401D7CF750157018FEF8A
:10199000A81AB80AF7018081082E000C990B0E9442
:1019A000DD13892B91F7015011090C0D1D1DF80154
:1019B0008081082E000C990B0E94DD13892B31F0D9
:1019C0000E151F0518F001501109F1CFA8014F5F46
:1019D0005F4F4E195F0950930B0340930A03CE14D7
:1019E000DF0420F4B701C6010E943A16E091060315
:1019F000F091070380910A0390910B03E80FF91F00
:101A0000108201CF041715070CF0BBC069012A151D
:101A10003B0510F06501590163E671E0CE018F9638
:101A20000E94AF08ED80FE80CE14DF04E0F4AE1417
:101A3000BF0408F47501E981FA81EE0DFF1DB08045
:101A4000108269817A816C0D7D1DCE018F966115A2
:101A5000710509F493C00E94570889819A81E80EA4
:101A6000F91EF701B082CE0101960E94D7088BA91A
:101A70009CA9892B09F48CC0BE01615D7F4FCE010A
:101A800001960E949008BE016F5F7F4FCE01829643
:101A90000E94A50BCE0101960E94D708CE018F9619
:101AA0000E94D7080F5F1F4F0436110509F02ECF93
:101AB000CE01C5960E94D70870E060E0CE01829604
:101AC0000E94810564E671E00E94DC07882321F012
:101AD0008DE691E00E94BE078CA19DA11816190603
:101AE00064F570E060E0CE0182960E948105BC0141
:101AF000CE018F960E94900867E771E0CE018F9625
:101B00000E94DC07882309F448C061E070E0CE0140
:101B100082960E9481050E94D107162F8DE00E94B7
:101B2000E700612F8DE00E9471028BE791E00E9437
:101B3000BE07CE018F960E94D708CE0182960E94E2
:101B4000DF0863E671E086E093E00E945708CE016B
:101B500082960E94710AEA960FB6F894DEBF0FBE15
:101B6000CDBFDF91CF911F910F91FF90EF90DF904C
:101B7000CF90BF90AF909F908F9008950E94F107F3
:101B80006CCF63E671E0CE018F960E94AF086BCFF9
:101B9000CE018F960E94D7088BCF6EE771E0CE0101
:101BA0008F960E94DC078823C1F061E070E0CE01CF
:101BB00082960E9481050E94D107162F62E070E094
:101BC000CE0182960E9481050E94D107062F812FA7
:101BD0000E94E700602F812FA6CF62E871E0CE015E
:101BE0008F960E94DC07882309F4A3CF61E070E0A0
:101BF000CE0182960E9481050E94D107862F0E9405
:101C00004802282F30E050E040E019A28E010F5D1D
:101C10001F4F8AE0C82ED12CE12CF12CCA01B9014A
:101C2000A70196010E943014605DF80162938F0154
:101C3000211531054105510589F7309729F0BF017C
:101C400089E592E00E94AF076CE571E089E592E0DA
:101C50000E94AF076ECFEF92FF920F931F93CF9327
:101C6000DF93CDB7DEB768970FB6F894DEBF0FBE2F
:101C7000CDBF61E083E00E94110666E871E088EB69
:101C800093E00E94AF0700919801109199011C8A7E
:101C90001B8A1E8A1D8A188E1F8AC80117FF04C05E
:101CA00088279927801B910B4AE0BE016F5F7F4F09
:101CB0000E94A313BE016F5F7F4FCE0143960E9427
:101CC000570892E0E92EF12C17FF03C0EE24E394AD
:101CD000F12C8F89988D8E159F05B0F460E3CE01AD
:101CE00001960E946108BE016D5E7F4FCE01019694
:101CF0000E940308BC01CE0143960E947908CE01E0
:101D000001960E94D708E5CF17FF15C06DE2CE01FE
:101D100001960E946108BE016D5E7F4FCE01019663
:101D20000E940308BC01CE0143960E947908CE01AF
:101D300001960E94D7084F89588D6B897C8988EB62
:101D400093E00E941201CE0143960E94D708689644
:101D50000FB6F894DEBF0FBECDBFDF91CF911F91BC
:101D60000F91FF90EF9008951F920F920FB60F9270
:101D700011242F933F934F935F936F937F938F9390
:101D80009F93AF93BF93EF93FF9389E592E00E94F7
:101D90009001FF91EF91BF91AF919F918F917F91B2
:101DA0006F915F914F913F912F910F900FBE0F90C8
:101DB0001F9018951F920F920FB60F9211242F9318
:101DC0008F939F93EF93FF93E0916902F0916A02E2
:101DD0008081E0916F02F091700282FD1BC09081C2
:101DE000809172028F5F8F7320917302821741F08E
:101DF000E0917202F0E0E75AFD4F958F80937202F6
:101E0000FF91EF919F918F912F910F900FBE0F90A7
:101E10001F9018958081F4CF1F920F920FB60F92EA
:101E200011242F933F938F939F93AF93BF938091F0
:101E3000020390910303A0910403B0910503309134
:101E40004C0223E0230F2D3758F50196A11DB11D3B
:101E500020934C028093020390930303A093040306
:101E6000B093050380914D0290914E02A0914F02D4
:101E7000B09150020196A11DB11D80934D02909327
:101E80004E02A0934F02B0935002BF91AF919F9129
:101E90008F913F912F910F900FBE0F901F9018952B
:101EA00026E8230F0296A11DB11DD2CF1F920F92DB
:101EB0000FB60F9211242F933F934F935F936F931D
:101EC0007F938F939F93AF93BF93EF93FF938091F3
:101ED000B900887F803609F44AC0F0F5883209F4E9
:101EE000A7C018F5803109F49BC0B8F4882309F421
:101EF000F9C0883009F494C0FF91EF91BF91AF9180
:101F00009F918F917F916F915F914F913F912F9111
:101F10000F900FBE0F901F901895883109F488C05C
:101F2000803251F78093250214C0803409F49DC09B
:101F300040F48033B9F38833F9F68093250285ECB9
:101F4000B0C0803509F485C0883509F496C088345E
:101F500099F60E949A0AD0CF883909F48CC038F5D6
:101F6000883729F050F4883611F0803729F683E05D
:101F7000809326021092240257C0883809F47BC04F
:101F8000803919F0803809F0B7CF8091240280326F
:101F900008F071C0E091240281E08E0F809324024A
:101FA0008091BB00F0E0EC5FFD4F80833DC0803B43
:101FB00039F0E0F4803A09F479C0883A09F09CCF0E
:101FC00084E0809326021092030210920202E091B4
:101FD0005302F091540209958091020281110FC0C1
:101FE00081E0809302021092E20109C0803C09F472
:101FF000A6CF883C09F4A3CF883B09F07DCFE091C0
:10200000030281E08E0F80930302F0E0EE51FE4F59
:1020100080818093BB00909103028091020229C0CD
:1020200080914B028093BB0085EC8093BC0064CF11
:1020300090914A0280914902981758F5E0914A021E
:1020400081E08E0F80934A02F0E0E75DFD4F8081D2
:10205000E9CFE0914A0281E08E0F80934A0280919D
:10206000BB00F0E0E75DFD4F808390914A028091D4
:1020700049029817C8F285E8D8CFE0914A0281E07A
:102080008E0F80934A028091BB00F0E0E75DFD4F28
:1020900080838091280281115CCF81E080932702A8
:1020A00084EA8093BC001092260226CF85EC8093B0
:1020B000BC001092260280912402803230F4E0911C
:1020C0002402F0E0EC5FFD4F10826091240270E08A
:1020D000E0915102F091520284E092E00995109251
:1020E00024020ACF1092250234CFCF93DF931092AF
:1020F0005C0210925B0288EE93E0A0E0B0E0809377
:102100005D0290935E02A0935F02B093600220E3B1
:1021100031E030935A022093590225EC30E030939D
:1021200066022093650224EC30E03093680220932D
:10213000670220EC30E030936A022093690221ECC0
:1021400030E030936C0220936B0222EC30E030934D
:102150006E0220936D0226EC30E0309370022093E3
:102160006F02109272021092730210927402109217
:1021700075021092F9021092F8028093FA0290937D
:10218000FB02A093FC02B093FD0282E491E09093E5
:10219000F7028093F6021092BB031092BA0384E513
:1021A00091E09093B9038093B80387E28093BC03D6
:1021B00080E18093C10382E08093C2031092C30345
:1021C0008FB7F89440910203509103036091040388
:1021D000709105038FBFC8E9D3E0E4E3F3E02CE09E
:1021E00033E0199211921192D9014D935D936D9341
:1021F0007D939D01CF01825B9F4FDC011D921C925C
:10220000B3E0E834FB0769F71092B7031092B60306
:1022100063E671E086E093E0DF91CF910C94AF0824
:10222000CF93DF9300D000D0CDB7DEB7789484B5DC
:10223000826084BD84B5816084BD85B5826085BDC2
:1022400085B5816085BD80916E00816080936E0050
:102250001092810080918100826080938100809142
:1022600081008160809381008091800081608093F3
:1022700080008091B10084608093B1008091B000B3
:1022800081608093B00080917A00846080937A00AE
:1022900080917A00826080937A0080917A008160D8
:1022A00080937A0080917A00806880937A001092FF
:1022B000C100E0916902F0916A0282E08083E091BE
:1022C0006502F09166021082E0916702F091680267
:1022D0008FEC808310927102E0916D02F0916E029A
:1022E00086E08083E0916B02F0916C0280818061D6
:1022F0008083E0916B02F0916C0280818860808322
:10230000E0916B02F0916C02808180688083E091A3
:102310006B02F0916C0280818F7D808346E051E0FA
:1023200068EE73E080E090E00E948D001092580209
:102330001092570210925602109255020E942703E3
:1023400080E191E0909354028093530281E191E007
:1023500090935202809351021092BD038091C20368
:10236000823018F098E09093BD038093C00362E33D
:1023700070E080E090E00E94CE026091C30388EBA1
:1023800093E00E94EC0368EE73E080E090E00E942E
:10239000CE0260E388EB93E00E94E1050BE416E4D3
:1023A000C8010197F1F760E388EB93E00E94E10533
:1023B000C8010197F1F760E388EB93E00E94E10523
:1023C00083E592E00197F1F760E288EB93E00E94E9
:1023D000E1056091BD03606240E088EB93E00E94FC
:1023E000FA0584E08093BE0340E06CE088EB93E064
:1023F0000E94FA0540E061E088EB93E00E94FA0554
:102400000BE31FE1C8010197F1F782E08093BF035E
:1024100040E066E088EB93E00E94FA0540E062E06D
:1024200088EB93E00E94FA05C8010197F1F788E074
:102430008093C30360E088EB93E00E94EC0360E0CC
:1024400080E00E9411066AE871E088EB93E00E9448
:10245000AF074BE25EE06AEF70E080E090E00E9440
:102460008D008DE00E94E70060E08DE00E94710227
:102470004FE952E064EF71E080E090E00E948D004F
:1024800012E0212E312C8FB7F894809002039090A7
:102490000303A0900403B09005038FBFE4E3F3E0CF
:1024A0000CE013E01C830B8330E020E0AF014259C5
:1024B0005F4FDA011D921C92808191813296892BA7
:1024C000B9F1AB81BC814D915D916D917C91139778
:1024D000DC964D905D906D907C90DF977501640166
:1024E000C41AD50AE60AF70AC414D504E604F704A8
:1024F000F8F0440D551D661D771D4D935D936D934A
:102500007C931397C90188569C4FDC018C918823DA
:1025100079F042AD53AD4115510509F065C0CF01C9
:1025200084599F4FEE24E394F12CDC01ED92FC9250
:102530002F5F3F4F4B815C814C5F5F4F5C834B83D0
:102540002A30310509F0B2CFD12CC12C580156E9FF
:10255000A50EB11CD5018D919C918130910509F496
:1025600063C0029709F466C0BFEFCB1ADB0A0E5FA7
:102570001F4FEAE0CE16D10449F789E592E00E94A8
:102580007001181619060CF0A4C089E592E00E94AB
:102590004E01883009F487C00CF07DC0882309F40F
:1025A0007FC089831A8200910A0310910B030F5F89
:1025B0001F4FB80186E093E00E9487078823E9F265
:1025C000209106033091070380910A0390910B0339
:1025D000BE016F5F7F4F820F931F0E945E161093A4
:1025E0000B0300930A03C9CF6F018EE4C80ED11C00
:1025F000D6018D919C91841795070CF099CFBF015E
:1026000064597F4FEE24E394F12CDB01ED92FC92B0
:102610000196D6018D939C93841795070CF488CF6F
:10262000DB012D923C9284CFD8019896ED91FC91DC
:1026300009959ACFD8019896ED91FC9109958091D2
:10264000B6039091B703009709F48ECFF80120A547
:1026500031A5232B09F488CF11A610A6F601E85660
:10266000FC4F1082D5011D921C92F601EE0FFF1F48
:10267000EE0FFF1FE45FFC4F14AE15AE16AE17AEA3
:10268000F801E858FF4F1182108201979093B70329
:102690008093B60369CF8A3019F08D3009F081CF6D
:1026A0000E94DE0B6ACF20910A0330910B03C9010F
:1026B00001978217930708F060CFE0910603F0912D
:1026C0000703E80FF91F90930B0380930A0310820E
:1026D00054CF80E0E82E80E0F82EEF2809F4D3CE26
:1026E0000E947C01882309F4CECE0E940000CBCE4C
:1026F00086E093E00C94D7081F93FC019927882764
:10270000BC01E89411911032E9F3193010F01E3039
:10271000C8F31B3251F01D3249F4689406C00E9480
:10272000AE13610F711D811D911D119110531A304F
:10273000B0F33EF490958095709561957F4F8F4FE3
:102740009F4F1F910895BB274A3031F4992322F4FB
:10275000BDE2909581959F4F0C94C413592F482F3B
:10276000372F262F660F771F881F991F660F771F39
:10277000881F991F620F731F841F951F660F771F95
:10278000881F991F0895BB27FB015527AA27880F8B
:10279000991FAA1FA41710F0A41B83955051B9F7D5
:1027A000A05DAA3308F0A95DA193009779F7B11154
:1027B000B1931192CB010C94E61391110C94F61382
:1027C000803219F089508550C8F70895DC01FC016A
:1027D000672F71917723E1F7329704C07C916D9355
:1027E00070836291AE17BF07C8F3089599278827B1
:1027F00008952F923F924F925F926F927F928F92A5
:102800009F92AF92BF92CF92DF92EF92FF920F937F
:102810001F93CF93DF93CDB7DEB7CA1BDB0B0FB689
:10282000F894DEBF0FBECDBF09942A883988488846
:102830005F846E847D848C849B84AA84B984C884DC
:10284000DF80EE80FD800C811B81AA81B981CE0FD3
:10285000D11D0FB6F894DEBF0FBECDBFED010895B8
:10286000A1E21A2EAA1BBB1BFD010DC0AA1FBB1F94
:10287000EE1FFF1FA217B307E407F50720F0A21B06
:10288000B30BE40BF50B661F771F881F991F1A9473
:1028900069F760957095809590959B01AC01BD019D
:1028A000CF010895EE0FFF1F0590F491E02D0994DC
:1028B0000F931F93CF93DF938230910510F482E042
:1028C00090E0E091C603F091C70330E020E0B0E073
:1028D000A0E0309799F42115310509F44AC0281B6E
:1028E000390B24303105D8F58A819B81611571053A
:1028F00089F1FB0193838283FE0111C040815181E4
:102900000281138148175907E0F04817590799F4D5
:10291000109761F012960C93129713961C933296AF
:10292000CF01DF91CF911F910F9108950093C603BE
:102930001093C703F4CF2115310551F04217530707
:1029400038F0A901DB019A01BD01DF01F801C1CF17
:10295000EF01F9CF9093C7038093C603CDCFFE015B
:10296000E20FF31F81939193225031093983288319
:10297000D7CF2091C4033091C503232B41F420917C
:102980000201309103013093C5032093C4032091C9
:102990000001309101012115310541F42DB73EB7F9
:1029A0004091040150910501241B350BE091C403B3
:1029B000F091C503E217F307A0F42E1B3F0B281775
:1029C000390778F0AC014E5F5F4F2417350748F0A8
:1029D0004E0F5F1F5093C5034093C403819391939F
:1029E0009FCFF0E0E0E09CCFCF93DF930097E9F03A
:1029F000FC01329713821282A091C603B091C703E3
:102A0000ED0130E020E01097A1F420813181820FA8
:102A1000931F2091C4033091C5032817390709F08B
:102A200061C0F093C503E093C403DF91CF91089593
:102A3000EA01CE17DF07E8F54A815B819E01411567
:102A40005105B1F7E901FB83EA8349915991C40F1C
:102A5000D51FEC17FD0761F4808191810296840FE8
:102A6000951FE90199838883828193819B838A835F
:102A7000F0E0E0E012968D919C9113970097B9F5E4
:102A80002D913C911197CD010296820F931F2091B9
:102A9000C4033091C5032817390739F6309751F52B
:102AA0001092C7031092C603B093C503A093C4034A
:102AB000BCCFD383C28340815181840F951FC81737
:102AC000D90761F44E5F5F4F88819981480F591F84
:102AD000518340838A819B819383828321153105B1
:102AE00009F0B0CFF093C703E093C6039ECFFD017A
:102AF000DC01C0CF13821282D7CFB0E0A0E0E3E8C0
:102B0000F5E10C94FB138C01009751F4CB010E946A
:102B100058148C01C801CDB7DEB7E0E10C9417144E
:102B2000FC01E60FF71F9C0122503109E217F30761
:102B300008F49DC0D901CD91DC911197C617D70734
:102B400098F0C530D10530F3CE010497861797076A
:102B500008F3C61BD70B2297C193D1936D937C9337
:102B6000CF010E94F414D6CF5B01AC1ABD0A4C0110
:102B70008C0E9D1EA091C603B091C703512C412C11
:102B8000F12CE12C109731F58091C4039091C5038D
:102B90008815990509F05CC04616570608F058C01C
:102BA0008091000190910101009741F48DB79EB78B
:102BB0004091040150910501841B950BE817F9071A
:102BC00008F055C0F093C503E093C403F901718385
:102BD0006083A0CF8D919C91119712966C90129763
:102BE00013967C901397A815B90559F56C0142E02E
:102BF000C40ED11CCA14DB0420F1AC014A195B09D4
:102C0000DA011296159780F06282738251834083B5
:102C1000D9016D937C93E114F10471F0D7011396FF
:102C2000FC93EE93129776CF22968C0F9D1FF9019D
:102C300091838083F301EFCFF093C703E093C60342
:102C400069CF4816590608F42C017D01D3019ACFAB
:102C5000CB010E9458147C01009749F0AE01B801E5
:102C60000E943A16C8010E94F414870153CF10E065
:102C700000E050CFFB01DC0102C001900D924150F9
:102C80005040D8F708956817790768F4FB01DC0114
:102C9000E40FF51FA40FB51F02C002900E92415021
:102CA0005040D8F708950C943A16FB01DC018D9141
:102CB000019080190110D9F3990B0895FB01DC01F3
:102CC00001900D920020E1F70895FB0151915523E9
:102CD000A9F0BF01DC014D9145174111E1F759F40D
:102CE000CD010190002049F04D9140154111C9F3EB
:102CF000FB014111EFCF81E090E00197089510E0D2
:102D0000C2E6D0E004C0FE010E9452142196C336F0
:082D1000D107C9F7F894FFCFC9
:102D18000000C803800000004000140054000000B8
:102D28000000710A900AB805D20AA50B460B99084B
:102D38000E098B09050AC008DF08F204000000002C
:102D4800B20112013F01FF0170014E016201000052
:102D58000000BD039003D404660389037603670368
:102D68000000000044061201D404D3040D0A002018
:102D7800200009006465765F6E616D65006D795F9E
:102D8800646576696365006C6564006F6B007365E4
:102D980074006765740053533D0048656C6C6F2080
:082DA800576F726C64210000FA
:00000001FF
